:1000000019C033C032C031C030C02FC02EC02DC087
:100010002CC02BC02AC029C028C027C049C525C074
:1000200024C023C08CC721C020C01FC01EC01DC05B
:100030001CC01BC011241FBECFEFD4E0DEBFCDBF5C
:1000400011E0A0E0B1E0EEE1FDE102C005900D920B
:10005000A231B107D9F712E0A2E1B1E001C01D92CF
:10006000A436B107E1F782D458CECACF39988FEFC2
:100070008093370180932601109238010895CF9321
:10008000DF93EC01C370D0708091370190E00C2EAB
:1000900002C0959587950A94E2F780FF0DC0809184
:1000A000260190E00C2E02C0959587950A94E2F700
:1000B00080FF02C0319B49C08091370190E00C2E37
:1000C00002C0959587950A94E2F780FD26C080913D
:1000D000260190E00C2E02C0959587950A94E2F7D0
:1000E00080FF1BC0319919C02091260181E090E06A
:1000F0000C2E02C0880F991F0A94E2F78095822384
:1001000080932601CC0FDD1FCC0FDD1FC95DDE4FB4
:10011000188219821A821B8229C18091370190E0CE
:100120000C2E02C0959587950A94E2F780FF1BC0BC
:100130008091260190E00C2E02C0959587950A9437
:10014000E2F780FD10C031990EC02091370181E0A7
:1001500090E002C0880F991FCA95E2F7809582232C
:100160008093370103C18091370190E00C2E02C0CB
:10017000959587950A94E2F780FD68C080912601E5
:1001800090E00C2E02C0959587950A94E2F780FDC9
:100190005DC031995BC0AE01440F551F475C5E4F97
:1001A000FA0120813181CE01880F991F880F991F94
:1001B00023333105ECF0FC01E95DFE4F8081918134
:1001C000A281B3810196A11DB11D80839183A28379
:1001D000B38389399105A105B10508F4C7C086E943
:1001E00090E0A0E0B0E080839183A283B38321C03C
:1001F000FC01E95DFE4F80819181A281B38101966E
:10020000A11DB11D80839183A283B383813A91059F
:10021000A105B10508F4AAC086E990E0A0E0B0E02D
:1002200080839183A283B3832F5F3F4FFA01318391
:1002300020832091380181E090E002C0880F991F4F
:10024000CA95E2F7282B2093380190C0809137019E
:1002500090E00C2E02C0959587950A94E2F780FFF6
:100260000DC08091260190E00C2E02C095958795D7
:100270000A94E2F780FF02C0319978C0809137017B
:1002800090E00C2E02C0959587950A94E2F780FDC8
:100290000DC08091260190E00C2E02C095958795A7
:1002A0000A94E2F780FF02C0319918C080913701AB
:1002B00090E00C2E02C0959587950A94E2F780FD98
:1002C0001AC08091260190E00C2E02C0959587956A
:1002D0000A94E2F780FD0FC0319B0DC020913701D9
:1002E00081E090E002C0880F991FCA95E2F7282BA1
:1002F000209337013BC08091370190E00C2E02C063
:10030000959587950A94E2F780FF30C08091260189
:1003100090E00C2E02C0959587950A94E2F780FD37
:1003200025C0319B23C02091260181E090E00C2E56
:1003300002C0880F991F0A94E2F7282B2093260108
:1003400020913801822B80933801FE01EE0FFF1FB0
:10035000EE0FFF1FE95DFE4F1082118212821382A1
:10036000CC0FDD1FC75CDE4F19821882DF91CF9161
:1003700008951092380108959C01F999FECF32BD7D
:1003800021BDF89A80B508959C01F999FECF1FBA56
:1003900032BD21BD60BD0FB6F894FA9AF99A0FBE2E
:1003A00008955F9A5E9A5D9A5C9A8130910571F02A
:1003B000823091051CF4892B39F008958230910523
:1003C00039F0039741F406C05F9808955E98089548
:1003D0005D9808955C980895579A569A559A549A3C
:1003E0001092430180E090E0DCDF08950F931F93AB
:1003F000DF93CF93CDB7DEB7C855D0400FB6F89492
:10040000DEBF0FBECDBF80912301882309F4BEC09B
:1004100010922301BE016F5F7F4F8DE891E04DDAAE
:10042000882309F0B3C0909118018981981709F0C9
:10043000ADC08A81863009F051C00D811E818B814B
:100440009C818130910549F18130910520F002971E
:1004500009F08BC032C0C801837090708130910563
:1004600019F0029741F404C080E090E052D703C035
:1004700080E090E06AD7C8018C709070843091055C
:1004800021F0089709F071C004C081E090E041D7E5
:100490006CC081E090E059D768C0B80181E0053FA9
:1004A000180710F064EF71E0709345016093440108
:1004B00044EC51E080E090E00FC0B80181E0053FDE
:1004C000180710F064EF71E07093470160934601E4
:1004D00044EC51E082E090E0D1DA47C0833009F08B
:1004E00055C099838A8381E08D8F8B819C81892B74
:1004F000E1F587E090E09C838B8380E090E059D722
:10050000892B19F401E010E002C002E010E01E8324
:100510000D8381E090E04DD7892B19F484E090E0C1
:1005200002C088E090E0802B912B9E838D83809188
:1005300044019091450198878F8380914601909165
:1005400047019A87898786E089D79C878B8787E0D0
:1005500085D79E878D8780E090E09ED6988B8F8789
:1005600081E090E099D69A8B898B8E01025E1F4FB5
:100570004BE350E0B801CE0101961BD92CE231E0EB
:1005800040E050E060E070E0C801ABD3C85ADF4FF4
:100590000FB6F894DEBF0FBECDBFCF91DF911F9194
:1005A0000F9108958091380183FF1CC0809138011C
:1005B000877F809338018091120190911301892BDC
:1005C00009F07FC01092170110921601809141012D
:1005D0009091420121E030E08227932790934201DD
:1005E000809341018091380181FF2DC080913801B5
:1005F0008D7F809338018091120190911301892B96
:1006000009F05FC01092170110921601809141010C
:1006100090914201FC01EE0FFF1FEC5BFE4F6081E9
:10062000718121E0643F720774F46F5F7F4F7183C3
:100630006083892B19F480E090E002C082E090E0B2
:1006400044EC51E01BDA8091380182FF2BC080918D
:1006500038018B7F809338018091120190911301B2
:10066000892B79F5109217011092160180914101A2
:1006700090914201FC01EE0FFF1FEC5BFE4F608189
:1006800071811616170674F461507040718360838F
:10069000892B19F480E090E002C082E090E044EC05
:1006A00051E0ECD98091380180FF24C0809138015D
:1006B0008E7F809338018091120190911301892BD4
:1006C00029F010921301109212010895109217014F
:1006D0001092160180914101909142016AD62091B9
:1006E000410130914201892B19F0C90112D60895B8
:1006F000C9012BD608958F929F92BF92CF92DF921D
:10070000EF92FF920F931F93CF93DF9378E4E72E3E
:1007100071E0F72E64E4C62E61E0D62EC0E0D0E092
:1007200051E0852E912CCE0144D6892B21F1F60182
:100730000081118146E0B42EBC0E8B2D8FD6081798
:10074000190724F4CE01A8D501970BC0F60100814A
:1007500011818B2D83D68017910754F4CE019CD53F
:100760000196BC01CE01A2D5F7019182808203C01F
:10077000F70111821082219682E090E0E80EF91EC6
:10078000C80ED91EC230D10571F6DF91CF911F91ED
:100790000F91FF90EF90DF90CF90BF909F908F9040
:1007A00008958091480190914901892B71F080E072
:1007B00090E0FFD5892B49F08091140190911501AB
:1007C000892B51F462E070E009C080E090E0F1D53F
:1007D00060E070E0892B11F061E070E082E090E071
:1007E00048D480914A0190914B01892B71F081E0AE
:1007F00090E0DFD5892B49F080911401909115018B
:10080000892B51F462E070E009C081E090E0D1D51D
:1008100060E070E0892B11F061E070E083E090E02F
:1008200028D48091120190911301892BF9F060E096
:1008300070E08091140190911501892B11F461E011
:1008400070E080E090E015D460E070E080911401E9
:1008500090911501892B11F061E070E081E090E04A
:1008600008D4E0911401F091150120C0809141015C
:1008700090914201892B19F462E070E002C060E0BF
:1008800070E080E090E0F5D38091410190914201C9
:10089000892B19F460E070E002C062E070E081E052
:1008A00090E0E7D3E0914101F0914201EE0FFF1F8C
:1008B000EC5BFE4F80819181B1D30895809143011B
:1008C00090E0DDDB809143018F5F809343018430B2
:1008D00010F0109243018091430190E085D3809104
:1008E000430190E05EDD8091190190911A0101961B
:1008F00090931A0180931901895E934084F01092BD
:100900001A0110921901809114019091150121E0B2
:1009100030E082279327909315018093140180E0A3
:1009200090E047D5892B09F181E090E042D5892BF1
:10093000E1F08091120190911301892BB1F4809123
:10094000160190911701019690931701809316015B
:100950008151974254F081E090E09093130180938D
:1009600012011092170110921601089535DD7EDBF9
:100970001CD322D031D480E024D540E05BE460E099
:1009800070E082E02AD10ED178946CEB71E080E0C7
:1009900090E05ED890934501809344016CEB71E048
:1009A00082E090E055D89093470180934601FADDAC
:1009B000F8DEA1DE1BDDFBCF80E090E02FEF3FEF04
:1009C000FC01EE0FFF1FE45BFE4F31832083019695
:1009D00080329105A9F780916E00826080936E004D
:1009E0008EE487BD82E084BD84E085BD08959FB715
:1009F000F894803218F0E0E0F0E009C0E82FF0E071
:100A0000EE0FFF1FE45BFE4F0190F081E02D9FBFD2
:100A1000CF0108959C015FB7F894A2E0B0E04A2F9F
:100A2000FD01EE0FFF1FE45BFE4F808191818F5F20
:100A30009F4F71F48FEF2F3F380711F42EEF3FEFE8
:100A4000AA0FBB1FA45BBE4F11963C932E9305C00B
:100A50004F5F1196A032B10511F75FBF842F089543
:100A60002FB7F8943FEF8F3F930711F48EEF9FEF6E
:100A700090934D0180934C012FBF2FB7F894809134
:100A80004C0190914D012FBF892BB9F70895E82FA4
:100A90002FB7F89482508E3148F4F0E0EE0FFF1F2C
:100AA000E45BFE4F8FEF9FEF918380832FBF08950C
:100AB0001F920F920FB60F9211242F933F934F93D3
:100AC0005F936F937F938F939F93AF93BF93EF93B6
:100AD000FF9320E030E0F901EE0FFF1FE45BFE4FD3
:100AE00080819181892B51F0808191818F5F9F4F0F
:100AF00029F0808191810197918380832F5F3F4FFF
:100B00002032310541F7DADE809100019091010138
:100B1000019790930101809300010196C9F480919F
:100B20001B0190911C01A0911D01B0911E01019625
:100B3000A11DB11D80931B0190931C01A0931D0169
:100B4000B0931E018AEE93E090930101809300011F
:100B500080911F0190912001A0912101B09122016B
:100B60000196A11DB11D80931F0190932001A093B8
:100B70002101B0932201FF91EF91BF91AF919F911D
:100B80008F917F916F915F914F913F912F910F9036
:100B90000FBE0F901F90189580918C010895809141
:100BA000CD0108958CE08093C2001092CD0108958C
:100BB00086E08093C20081E08093CD01089586E0B5
:100BC0008093C20082E08093CD01089586E08093F7
:100BD000C20083E08093CD0108951F93182F9A01DE
:100BE000AB0160ED72E183E190E075D821503040B7
:100BF00010938C011092C00088E18093C1008CE0BA
:100C00008093C2003093C5002093C4008093C2003B
:100C10001092CD011123A9F0529A113051F4809114
:100C2000C1008F7E8093C1005A9A8091C1008F7756
:100C30000BC0123059F48091C10080618093C100D3
:100C40005A988091C10080688093C1001F910895D7
:100C500080918C01882379F05A9A8091C1008F7E0F
:100C60008093C10088EA91E60197F1F78091C10075
:100C70008F778093C100089580918C018823B9F00B
:100C80008091C00086FFFCCF80E197E20197F1F7E9
:100C90008091C10080618093C1005A9888EA91E6F2
:100CA0000197F1F78091C10080688093C100089599
:100CB000982F8091C00085FFFCCF9093C60080E004
:100CC00090E008958091C00087FFFCCF8091C6001E
:100CD00090E008952091C00030E020783070C90184
:100CE0000895AC0190918C01923079F45A9A8091D8
:100CF000C1008F7E8093C100E8EAF1E63197F1F7F9
:100D00008091C1008F778093C1008091CD018823AD
:100D1000B1F420E007C08091C00085FFFCCFE093D4
:100D2000C6002F5FFA01E20FF11DE081EA3099F76A
:100D30008091C00085FFFCCF8AE08093C600672BBE
:100D400011F081E00895923011F080E0089594DF71
:100D500080E00895982F8A3341F480938D0181E0DB
:100D600080932401109223010EC0809124018823D6
:100D700051F080912401E82FF0E0E357FE4F90837B
:100D80008F5F8093240180918D018A33B1F4E091CB
:100D90002401F0E0E557FE4F80818D3071F4E09141
:100DA0002401F0E0E457FE4F80818A3031F481E085
:100DB00080932301109224010895809124018034AE
:100DC00021F410922401109223010895982F833268
:100DD00041F480938D0181E08093240110922301DE
:100DE0000EC080912401882351F080912401E82FC6
:100DF000F0E0E357FE4F90838F5F80932401809152
:100E00008D01833271F4E0912401F0E0E457FE4F4C
:100E100080818D3031F481E0809323011092240190
:100E2000089580912401803421F4109224011092BD
:100E300023010895982F8E3789F480912401882307
:100E400069F41092230180912401E82FF0E0E35728
:100E5000FE4F90838F5F8093240114C08091240102
:100E6000882381F080912401843060F480912401F2
:100E7000E82FF0E0E357FE4F90838F5F80932401CB
:100E80001092230180918D018E3751F480912401BD
:100E9000843031F41092240181E08093230108957D
:100EA00080912401803461F42DE831E040E450E089
:100EB00060E070E0C901C5D51092240110922301B1
:100EC0000895982F8E3371F08A3061F0809124015B
:100ED000E82FF0E0E357FE4F90838F5F809324016B
:100EE00010922301E0912401F0E02DE831E0E45775
:100EF000FE4F80818D30A1F481E0809323018091A9
:100F00002401803450F480912401E82FF0E0E20FB6
:100F1000F31F10828F5F80932401109224010895A3
:100F200080912401803451F440E450E060E070E0AE
:100F3000C90187D5109224011092230108951F92B0
:100F40000F920FB60F9211242F933F934F935F93FD
:100F50006F937F938F939F93AF93BF93EF93FF9381
:100F60008091C6009091CD01913049F0913028F0E8
:100F7000923039F0933041F406C0ECDE05C026DF34
:100F800003C09FDF01C056DFFF91EF91BF91AF918A
:100F90009F918F917F916F915F914F913F912F9191
:100FA0000F900FBE0F901F9018953A9A3B9A3C9A5B
:100FB0004298439844980895449840E850E028E0C7
:100FC00030E0682F70E0CA0186239723892B11F047
:100FD000439A01C04398429A4298559547952150AB
:100FE000304089F7449A089583709070FC01E25371
:100FF000FE4F2081892B79F0E22FEF7DEC3008F055
:10100000E0E0F0E0EE5FFE4FE08125FD02C02E2F14
:1010100002C02E2F2062822FCFDF08959C0183E033
:10102000283E380730F089E28093D1018093D001C7
:101030001DC0C90164E670E03BD6462F662309F463
:101040004BE0C90164E670E033D69C016AE070E0D1
:101050002FD6662319F44B3009F46BE04093D1018D
:101060006093D001C9016AE070E022D68093CF017D
:1010700008959B01237030708130910511F1823009
:1010800091051CF4892B41F008958230910571F18E
:10109000039709F058C03FC060FF04C08091CE01A3
:1010A000846003C08091CE018B7F8093CE0121FFAD
:1010B00004C08091CE0182603EC08091CE018D7FC0
:1010C0003AC060FF04C08091CE01816003C080916E
:1010D000CE018E7F8093CE0121FF04C08091CE018E
:1010E000886029C08091CE01877F25C060FF04C041
:1010F0008091CE01806103C08091CE018F7E80936C
:10110000CE0121FF04C08091CE01806214C0809185
:10111000CE018F7D10C060FF04C08091CE0180643D
:1011200003C08091CE018F7B8093CE0121FF06C04A
:101130008091CE0180688093CE0108958091CE0188
:101140008F778093CE01089560E070E092DF08957C
:1011500081309105D9F0823091051CF4892B49F03A
:1011600005C082309105D9F0039739F120E030E0D5
:1011700031C08091CE0190E09C013695279536953F
:1011800027952170307081FF25C023C08091CE014A
:1011900090E09C012170307083FF1CC01AC08091C8
:1011A000CE0190E09C0144E0369527954A95E1F701
:1011B0002170307085FF0EC00CC08091CE01282FA9
:1011C00030E096E0369527959A95E1F721703070DA
:1011D00087FD2260C901089587EE93E09093870010
:1011E00080938600A0E8B0E08C9180688C938C910D
:1011F00080628C93E1E8F0E08081806180838C9153
:1012000082608C93808181608083219A229A1092DF
:10121000D3011092D2011092D5011092D4011092F4
:10122000D7011092D6012FB7F89487EE93E09093F0
:101230008900809388002FBF1092D9011092D801A5
:101240002FB7F89487EE93E090938B0080938A00F9
:101250002FBF089577FF03C060E070E006C093E001
:10126000683E790714F067EE73E02FB7F89480FFBB
:1012700009C087EE93E0861B970B90938B008093B9
:101280008A0008C087EE93E0861B970B9093890035
:10129000809388002FBF0895FC01E170F070EE0F7D
:1012A000FF1FEE52FE4F8081918108959C012170B5
:1012B000307077FF03C060E070E006C083E0683EF6
:1012C000780714F067EE73E0F901EE0FFF1FDF01FE
:1012D000AE52BE4F6D937C93EA52FE4F8081918156
:1012E000892BB1F04FB7F894232B49F087EE93E0A8
:1012F000861B970B90938B0080938A0008C087EE23
:1013000093E0861B970B90938900809388004FBFD2
:10131000089581709070FC01EE0FFF1FEA52FE4F9E
:10132000118210822FB7F894892B39F087EE93E061
:1013300090938B0080938A0006C087EE93E0909391
:101340008900809388002FBF08959C012170307020
:10135000F901EE0FFF1FDF01AA52BE4F81E090E0BE
:101360008D939C93EE52FE4F0190F081E02DF7FF9C
:1013700003C0E0E0F0E006C083E0E83EF80714F0C8
:10138000E7EEF3E04FB7F894232B49F087EE93E0B4
:101390008E1B9F0B90938B0080938A0008C087EE72
:1013A00093E08E1B9F0B90938900809388004FBF22
:1013B0000895FC01EE0FFF1FEA52FE4F80819181DC
:1013C0000895282F80932501EAEDF1E035E080E0D3
:1013D00092E0108231831382128295838483178274
:1013E0001682108611861286138615861486178635
:1013F0001686108A719642E0E236F40751F781E0D2
:10140000809350028093610287E080937A008091FC
:101410007A00806880937A0080E4809362022130B1
:1014200081F41092630280910E01805C80937C00B5
:1014300080917A00886080937A0080917A0080643D
:101440000AC01092630280910E01805C80937C0040
:1014500080917A00877F80937A000895982F883052
:1014600008F090E080916202890F80937C00809167
:101470007A00806480937A0080917A0086FDFCCFA8
:101480005091780040917900892F90E0342F20E02E
:10149000250F311DFC0144E0EE0FFF1F4A95E1F7D7
:1014A000E80FF91FE652FE4F37832683868597851E
:1014B000281B390B008802C0359527950A94E2F75E
:1014C000C901089590E0FC0154E0EE0FFF1F5A950A
:1014D000E1F7E80FF91FE652FE4F848595850895E0
:1014E00090E0FC0164E0EE0FFF1F6A95E1F7E80F62
:1014F000F91FE652FE4F2681378186859785281B86
:10150000390B008802C0359527950A94E2F7C90186
:10151000089590E0FC0174E0EE0FFF1F7A95E1F76B
:10152000E80FF91FE652FE4F8481958108958830B7
:1015300008F080E06115710511F461E070E090E061
:10154000FC01A4E0EE0FFF1FAA95E1F7E80FF91FD9
:10155000E652FE4F75836483089590E0FC01B4E089
:10156000EE0FFF1FBA95E1F7E80FF91FE652FE4FA5
:1015700081810895883008F080E090E0FC0124E04B
:10158000EE0FFF1F2A95E1F7E80FF91FE652FE4F15
:101590006183089590912501282F30E0913089F4DE
:1015A000F90154E0EE0FFF1F5A95E1F7E20FF31F28
:1015B000E652FE4F848195816AE070E065D3AB010D
:1015C00015C0F90144E0EE0FFF1F4A95E1F7E20F65
:1015D000F31FE652FE4F818190E024813581829F86
:1015E000A001839F500D929F500D1124CA010895B0
:1015F000AA2797FDA095BA2FBC01CD0156D22DEC9C
:101600003CEC4CE45DE38CD20895FB018F708A3092
:1016100010F4805D01C0895C808380E00895FB0147
:10162000982F92959F709A3010F4905D01C0995C4C
:1016300090838F708A3010F4805D01C0895C818353
:1016400080E00895FF920F931F93F82E8B01892F4E
:10165000E6DF0E5F1F4FB8018F2DE1DF80E01F91A5
:101660000F91FF900895982FFB018154863020F44C
:101670009753908380E00895892F80538A3010F02B
:1016800082E00895808380E00895FC01DB01908171
:10169000892F8154863018F4292F275306C0292F0B
:1016A00020532A3010F082E00895322F3295307F97
:1016B0003C939181892F8154863010F4975306C052
:1016C00090539A3018F0922F82E001C080E0390FD9
:1016D0003C930895CF92DF92EF92FF920F931F9366
:1016E000DF93CF930F92CDB7DEB77C018B016E01F4
:1016F0000894C11CD11CB601C8DF382F882389F497
:101700008981F80110828183B601C7010296BDDF8D
:10171000382F2981F80180819181820F911D918359
:101720008083832F0F90CF91DF911F910F91FF90B6
:10173000EF90DF90CF9008956F927F928F929F925B
:10174000AF92BF92CF92DF92FF920F931F93DF93DE
:10175000CF930F92CDB7DEB74C016B015A01FF2436
:1017600000E010E03E010894611C711C0BC0B30145
:10177000C401800F911F89DF882361F40E5F1F4F22
:101780008981F80E0C151D0590F3B5018F2D8195FB
:1017900046DF80E00F90CF91DF911F910F91FF9076
:1017A000DF90CF90BF90AF909F908F907F906F9081
:1017B0000895CF92DF92FF920F931F93CF93DF9301
:1017C0008C016B01DC015C968C915C97813039F463
:1017D00011968C91833019F48BE390E002C081E183
:1017E00090E04817590710F494E05EC0F6018AE3D0
:1017F0008193BF01F801808112DFB6016D5F7F4FD9
:10180000D80111968C910BDFE6012596F801848DA5
:10181000813051F48181833039F48281BE01880F97
:10182000FEDEE601279608C0BE01D80112968D9112
:101830009C91139707DF2496BE01F801848195815E
:1018400001DF2496D8015C968C915C978130E1F49D
:1018500011968C918330C1F4FF24F3940BC032961F
:10186000EE0FFF1FE00FF11FBE0180819181EADEC4
:101870002496F394EF2DF0E0D80112968D919C916F
:101880001397E817F90758F3B601609570956C0F38
:101890007D1FAE01C60101964FDF982F882321F4EA
:1018A0008DE08A838AE08B83892FDF91CF911F910E
:1018B0000F91FF90DF90CF900895AF92BF92CF929B
:1018C000DF92EF92FF920F931F93DF93CF9300D09D
:1018D0000F92CDB7DEB76C018B018DE1FB01119248
:1018E0008A95E9F7F60160E070E080818D30B1F40F
:1018F00081818A3099F442E0A42EB12CA60EB71E45
:1019000076010894E11CF11C63507040AE014E5FFB
:101910005F4FC70111DF882349F085C06F5F7F4F9C
:1019200031966B33710509F785E07DC0F601EA0D4C
:10193000FB1D34979A8180813496981709F070C006
:1019400033979B818081981709F06AC0B801C7015D
:101950009CDE882309F067C033E0E32EF12CEC0C09
:10196000FD1CB8016F5F7F4FC7018FDE882309F030
:101970005AC0F8018181833009F041C0F1E1AF160E
:10198000B104E9F181E0F801848F25E0E22EF12C29
:10199000EC0CFD1CBE016F5F7F4FC70176DED82EB9
:1019A000882309F03FC0898186958C3018F08CE03F
:1019B00090E001C090E0F8019383828382E090E0A0
:1019C000E80EF91E198211C06E5F7F4F660F771FF8
:1019D000600F711FC7017EDE882329F589818F5F23
:1019E0008983E4E0F0E0EE0EFF1E8981682F70E04D
:1019F000F801828193816817790730F313C0F801E9
:101A0000148EB8016E5F7F4FC701029663DE882394
:101A100051F40C5F1F4FB801C70106965BDE03C08F
:101A200083E001C08D2D0F900F900F90CF91DF912B
:101A30001F910F91FF90EF90DF90CF90BF90AF90EC
:101A40000895DC0101C06D9341505040E0F70895C6
:101A5000DF92EF92FF920F931F937B018C01FB01AA
:101A60000995D82EC8010196F7010995982F8D2D5B
:101A70001F910F91FF90EF90DF900895DF92EF920A
:101A8000FF920F931F93D72E7A018C01FA010995CB
:101A90006D2DC8010196F70109951F910F91FF90D7
:101AA000EF90DF900895E89409C097FB3EF490957D
:101AB0008095709561957F4F8F4F9F4F9923A9F027
:101AC000F92F96E9BB279395F695879577956795B6
:101AD000B795F111F8CFFAF4BB0F11F460FF1BC0FA
:101AE0006F5F7F4F8F4F9F4F16C0882311F096E98D
:101AF00011C0772321F09EE8872F762F05C066233B
:101B000071F096E8862F70E060E02AF09A95660FF3
:101B1000771F881FDAF7880F9695879597F90895AC
:101B20000BD078C069D028F06ED018F0952309F05A
:101B30005AC05FC01124A2C07ED0A0F3959FD1F3FC
:101B4000950F50E0551F629FF001729FBB27F00D6B
:101B5000B11D639FAA27F00DB11DAA1F649F6627C0
:101B6000B00DA11D661F829F2227B00DA11D621F0F
:101B7000739FB00DA11D621F839FA00D611D221FC9
:101B8000749F3327A00D611D231F849F600D211DAD
:101B9000822F762F6A2F11249F5750408AF0E1F050
:101BA00088234AF0EE0FFF1FBB1F661F771F881F99
:101BB00091505040A9F79E3F510570F014C05EC08F
:101BC0005F3FECF3983EDCF3869577956795B79584
:101BD000F795E7959F5FC1F7FE2B880F911D9695AE
:101BE000879597F9089597F99F6780E870E060E01E
:101BF00008959FEF80EC089500240A9416161706A6
:101C000018060906089500240A94121613061406ED
:101C100005060895092E0394000C11F4882352F050
:101C2000BB0F40F4BF2B11F460FF04C06F5F7F4F08
:101C30008F4F9F4F089557FD9058440F551F59F0EF
:101C40005F3F71F04795880F97FB991F61F09F3FA9
:101C500079F087950895121613061406551FF2CFD2
:101C60004695F1DF08C0161617061806991FF1CF22
:101C700086957105610508940895E894BB27662749
:101C80007727CB0197F90895AA1BBB1B51E107C029
:101C9000AA1FBB1FA617B70710F0A61BB70B881FFC
:101CA000991F5A95A9F780959095BC01CD0108958B
:101CB00097FB092E07260AD077FD04D0E5DF06D072
:101CC00000201AF4709561957F4F0895F6F790956E
:101CD00081959F4F0895A1E21A2EAA1BBB1BFD01FF
:101CE0000DC0AA1FBB1FEE1FFF1FA217B307E407FB
:101CF000F50720F0A21BB30BE40BF50B661F771F53
:101D0000881F991F1A9469F7609570958095909532
:0E1D10009B01AC01BD01CF010895F894FFCFF7
:101D1E00EA03D714CD5D1E5BDB15DF5F04000607FB
:021D2E00FF00B4
:00000001FF
